{
  "address": "0x6C78bd43643aC277Ed15D1562F8080c9d25E32Ab",
  "abi": [
    {
      "inputs": [
        {
          "internalType": "contract AddressRegistry",
          "name": "_podsRegistry",
          "type": "address"
        },
        {
          "internalType": "address",
          "name": "_owner",
          "type": "address"
        },
        {
          "internalType": "uint256",
          "name": "_upkeepBlockInterval",
          "type": "uint256"
        },
        {
          "internalType": "uint256",
          "name": "_upkeepBatchLimit",
          "type": "uint256"
        }
      ],
      "stateMutability": "nonpayable",
      "type": "constructor"
    },
    {
      "anonymous": false,
      "inputs": [
        {
          "indexed": false,
          "internalType": "string",
          "name": "error",
          "type": "string"
        }
      ],
      "name": "ErrorCallingDrop",
      "type": "event"
    },
    {
      "anonymous": false,
      "inputs": [
        {
          "indexed": true,
          "internalType": "address",
          "name": "previousOwner",
          "type": "address"
        },
        {
          "indexed": true,
          "internalType": "address",
          "name": "newOwner",
          "type": "address"
        }
      ],
      "name": "OwnershipTransferred",
      "type": "event"
    },
    {
      "anonymous": false,
      "inputs": [
        {
          "indexed": false,
          "internalType": "contract AddressRegistry",
          "name": "addressRegistry",
          "type": "address"
        }
      ],
      "name": "PodsRegistryUpdated",
      "type": "event"
    },
    {
      "anonymous": false,
      "inputs": [
        {
          "indexed": false,
          "internalType": "uint256",
          "name": "upkeepBatchLimit",
          "type": "uint256"
        }
      ],
      "name": "UpkeepBatchLimitUpdated",
      "type": "event"
    },
    {
      "anonymous": false,
      "inputs": [
        {
          "indexed": false,
          "internalType": "uint256",
          "name": "upkeepBlockInterval",
          "type": "uint256"
        }
      ],
      "name": "UpkeepBlockIntervalUpdated",
      "type": "event"
    },
    {
      "inputs": [
        {
          "internalType": "bytes",
          "name": "checkData",
          "type": "bytes"
        }
      ],
      "name": "checkUpkeep",
      "outputs": [
        {
          "internalType": "bool",
          "name": "upkeepNeeded",
          "type": "bool"
        },
        {
          "internalType": "bytes",
          "name": "performData",
          "type": "bytes"
        }
      ],
      "stateMutability": "view",
      "type": "function"
    },
    {
      "inputs": [],
      "name": "owner",
      "outputs": [
        {
          "internalType": "address",
          "name": "",
          "type": "address"
        }
      ],
      "stateMutability": "view",
      "type": "function"
    },
    {
      "inputs": [
        {
          "internalType": "bytes",
          "name": "performData",
          "type": "bytes"
        }
      ],
      "name": "performUpkeep",
      "outputs": [],
      "stateMutability": "nonpayable",
      "type": "function"
    },
    {
      "inputs": [],
      "name": "podsRegistry",
      "outputs": [
        {
          "internalType": "contract AddressRegistry",
          "name": "",
          "type": "address"
        }
      ],
      "stateMutability": "view",
      "type": "function"
    },
    {
      "inputs": [
        {
          "internalType": "uint256",
          "name": "podIndex",
          "type": "uint256"
        }
      ],
      "name": "readLastBlockNumberForPodIndex",
      "outputs": [
        {
          "internalType": "uint32",
          "name": "",
          "type": "uint32"
        }
      ],
      "stateMutability": "view",
      "type": "function"
    },
    {
      "inputs": [],
      "name": "renounceOwnership",
      "outputs": [],
      "stateMutability": "nonpayable",
      "type": "function"
    },
    {
      "inputs": [
        {
          "internalType": "address",
          "name": "newOwner",
          "type": "address"
        }
      ],
      "name": "transferOwnership",
      "outputs": [],
      "stateMutability": "nonpayable",
      "type": "function"
    },
    {
      "inputs": [
        {
          "internalType": "uint256",
          "name": "_upkeepBlockInterval",
          "type": "uint256"
        }
      ],
      "name": "updateBlockUpkeepInterval",
      "outputs": [],
      "stateMutability": "nonpayable",
      "type": "function"
    },
    {
      "inputs": [
        {
          "internalType": "contract AddressRegistry",
          "name": "_addressRegistry",
          "type": "address"
        }
      ],
      "name": "updatePodsRegistry",
      "outputs": [],
      "stateMutability": "nonpayable",
      "type": "function"
    },
    {
      "inputs": [
        {
          "internalType": "uint256",
          "name": "_upkeepBatchLimit",
          "type": "uint256"
        }
      ],
      "name": "updateUpkeepBatchLimit",
      "outputs": [],
      "stateMutability": "nonpayable",
      "type": "function"
    },
    {
      "inputs": [],
      "name": "upkeepBatchLimit",
      "outputs": [
        {
          "internalType": "uint256",
          "name": "",
          "type": "uint256"
        }
      ],
      "stateMutability": "view",
      "type": "function"
    },
    {
      "inputs": [],
      "name": "upkeepBlockInterval",
      "outputs": [
        {
          "internalType": "uint256",
          "name": "",
          "type": "uint256"
        }
      ],
      "stateMutability": "view",
      "type": "function"
    }
  ],
  "transactionHash": "0x2d3b4571ed8397032fed6d68d2dfa30b3f0c0e8f0940ebad38c788de872d7258",
  "args": [
    "0xB917f266424B803F389c79B86609710247a0370f",
    "0x3F0556bCA55Bdbb78A9316936067a47fd4C4C4f4",
    10,
    20
  ],
  "solcInputHash": "6a7f5da9ffd98c8ca7f12797d18e4d13",
  "bytecode": "0x608060405234801561001057600080fd5b50604051610f80380380610f808339818101604052608081101561003357600080fd5b5080516020820151604083015160609093015191929091600061005461015f565b600080546001600160a01b0319166001600160a01b038316908117825560405192935091600080516020610f60833981519152908290a350600180546001600160a01b0386166001600160a01b0319909116811790915560408051918252517f18bd423236e58da961144fbace94c4bc95a7adc67dd2d7d85187a6fb194af92d9181900360200190a16100e683610163565b600c8290556040805183815290517f90a69c64360b7faa15b24f7c6bf7886de2ae300b4405895b8c4a4beabe67f7879181900360200190a1600d8190556040805182815290517f65a9cb1bf62947e219360bb6e0c9bdf929470e2d9c3dbd10600089b13ef7c0c89181900360200190a150505050610274565b3390565b61016b61015f565b6001600160a01b031661017c610265565b6001600160a01b0316146101d7576040805162461bcd60e51b815260206004820181905260248201527f4f776e61626c653a2063616c6c6572206973206e6f7420746865206f776e6572604482015290519081900360640190fd5b6001600160a01b03811661021c5760405162461bcd60e51b8152600401808060200182810382526026815260200180610f3a6026913960400191505060405180910390fd5b600080546040516001600160a01b0380851693921691600080516020610f6083398151915291a3600080546001600160a01b0319166001600160a01b0392909216919091179055565b6000546001600160a01b031690565b610cb7806102836000396000f3fe608060405234801561001057600080fd5b50600436106100b45760003560e01c8063715018a611610071578063715018a6146102a957806378fa10ac146102b157806385f5695c146102d75780638da5cb5b146102df578063cc112329146102e7578063f2fde38b14610304576100b4565b8063241a9a65146100b95780634043511c146100d35780634585e33b146100f257806358c81ec414610160578063691b166e146101845780636e04ff0d146101ba575b600080fd5b6100c161032a565b60408051918252519081900360200190f35b6100f0600480360360208110156100e957600080fd5b5035610330565b005b6100f06004803603602081101561010857600080fd5b810190602081018135600160201b81111561012257600080fd5b82018360208201111561013457600080fd5b803590602001918460018302840111600160201b8311171561015557600080fd5b5090925090506103cd565b6101686106df565b604080516001600160a01b039092168252519081900360200190f35b6101a16004803603602081101561019a57600080fd5b50356106ee565b6040805163ffffffff9092168252519081900360200190f35b610228600480360360208110156101d057600080fd5b810190602081018135600160201b8111156101ea57600080fd5b8201836020820111156101fc57600080fd5b803590602001918460018302840111600160201b8311171561021d57600080fd5b509092509050610716565b60405180831515815260200180602001828103825283818151815260200191508051906020019080838360005b8381101561026d578181015183820152602001610255565b50505050905090810190601f16801561029a5780820380516001836020036101000a031916815260200191505b50935050505060405180910390f35b6100f06108e5565b6100f0600480360360208110156102c757600080fd5b50356001600160a01b0316610991565b6100c1610a47565b610168610a4d565b6100f0600480360360208110156102fd57600080fd5b5035610a5c565b6100f06004803603602081101561031a57600080fd5b50356001600160a01b0316610af9565b600d5481565b610338610bfb565b6001600160a01b0316610349610a4d565b6001600160a01b031614610392576040805162461bcd60e51b81526020600482018190526024820152600080516020610c62833981519152604482015290519081900360640190fd5b600c8190556040805182815290517f90a69c64360b7faa15b24f7c6bf7886de2ae300b4405895b8c4a4beabe67f7879181900360200190a150565b600154604080516351cfd60960e11b815290516000926001600160a01b03169163a39fac129160048083019286929190829003018186803b15801561041157600080fd5b505afa158015610425573d6000803e3d6000fd5b505050506040513d6000823e601f3d908101601f19168201604052602081101561044e57600080fd5b8101908080516040519392919084600160201b82111561046d57600080fd5b90830190602082018581111561048257600080fd5b82518660208202830111600160201b8211171561049e57600080fd5b82525081516020918201928201910280838360005b838110156104cb5781810151838201526020016104b3565b5050505090500160405250505090506000815190506000600d5490506000805b600884048160ff16116106d657600060028260ff16600a811061050a57fe5b0154905060005b8583600802820160ff1610156106b95784841061052d576106b9565b60006105398383610bff565b9050600c548163ffffffff16014311156106b0578784600802830160ff168151811061056157fe5b60200260200101516001600160a01b031663f751cd8f6040518163ffffffff1660e01b8152600401602060405180830381600087803b1580156105a357600080fd5b505af19250505080156105c857506040513d60208110156105c357600080fd5b505160015b61069b573d8080156105f6576040519150601f19603f3d011682016040523d82523d6000602084013e6105fb565b606091505b507f6d76753540646814a401f54fb847d2150250f7ea7881a7029bcd2a678d987e7c816040518080602001828103825283818151815260200191508051906020019080838360005b8381101561065b578181015183820152602001610643565b50505050905090810190601f1680156106885780820380516001836020036101000a031916815260200191505b509250505060405180910390a1506106b0565b506001909401936106ad838343610c18565b92505b50600101610511565b508060028360ff16600a81106106cb57fe5b0155506001016104eb565b50505050505050565b6001546001600160a01b031681565b60006008820461070f600282600a811061070457fe5b015460088506610bff565b9392505050565b600060606000600160009054906101000a90046001600160a01b03166001600160a01b031663a39fac126040518163ffffffff1660e01b815260040160006040518083038186803b15801561076a57600080fd5b505afa15801561077e573d6000803e3d6000fd5b505050506040513d6000823e601f3d908101601f1916820160405260208110156107a757600080fd5b8101908080516040519392919084600160201b8211156107c657600080fd5b9083019060208201858111156107db57600080fd5b82518660208202830111600160201b821117156107f757600080fd5b82525081516020918201928201910280838360005b8381101561082457818101518382015260200161080c565b5050505090500160405250505090506000600c54905060008251905060005b6008820481116108c3576000600282600a811061085c57fe5b0154905060005b8383600802820110156108b957600061087c8383610bff565b9050858163ffffffff16014311156108b05760016040518060200160405280600081525098509850505050505050506108de565b50600101610863565b5050600101610843565b50600060405180602001604052806000815250945094505050505b9250929050565b6108ed610bfb565b6001600160a01b03166108fe610a4d565b6001600160a01b031614610947576040805162461bcd60e51b81526020600482018190526024820152600080516020610c62833981519152604482015290519081900360640190fd5b600080546040516001600160a01b03909116907f8be0079c531659141344cd1fd0a4f28419497f9722a3daafe3b4186f6b6457e0908390a3600080546001600160a01b0319169055565b610999610bfb565b6001600160a01b03166109aa610a4d565b6001600160a01b0316146109f3576040805162461bcd60e51b81526020600482018190526024820152600080516020610c62833981519152604482015290519081900360640190fd5b600180546001600160a01b0383166001600160a01b0319909116811790915560408051918252517f18bd423236e58da961144fbace94c4bc95a7adc67dd2d7d85187a6fb194af92d9181900360200190a150565b600c5481565b6000546001600160a01b031690565b610a64610bfb565b6001600160a01b0316610a75610a4d565b6001600160a01b031614610abe576040805162461bcd60e51b81526020600482018190526024820152600080516020610c62833981519152604482015290519081900360640190fd5b600d8190556040805182815290517f65a9cb1bf62947e219360bb6e0c9bdf929470e2d9c3dbd10600089b13ef7c0c89181900360200190a150565b610b01610bfb565b6001600160a01b0316610b12610a4d565b6001600160a01b031614610b5b576040805162461bcd60e51b81526020600482018190526024820152600080516020610c62833981519152604482015290519081900360640190fd5b6001600160a01b038116610ba05760405162461bcd60e51b8152600401808060200182810382526026815260200180610c3c6026913960400191505060405180910390fd5b600080546040516001600160a01b03808516939216917f8be0079c531659141344cd1fd0a4f28419497f9722a3daafe3b4186f6b6457e091a3600080546001600160a01b0319166001600160a01b0392909216919091179055565b3390565b63ffffffff60ff602083021690811b8316901c92915050565b63ffffffff60ff6020939093029290921682811b801992909316901b179117169056fe4f776e61626c653a206e6577206f776e657220697320746865207a65726f20616464726573734f776e61626c653a2063616c6c6572206973206e6f7420746865206f776e6572a2646970667358221220abebeed96a19b32f27bdf489b0a35532258ee288f5911f12a06150e1edc6698664736f6c634300070600334f776e61626c653a206e6577206f776e657220697320746865207a65726f20616464726573738be0079c531659141344cd1fd0a4f28419497f9722a3daafe3b4186f6b6457e0",
  "devdoc": {
    "events": {
      "ErrorCallingDrop(string)": {
        "params": {
          "error": "is the revert message"
        }
      }
    },
    "kind": "dev",
    "methods": {
      "checkUpkeep(bytes)": {
        "params": {
          "checkData": "Not used in this implementation."
        },
        "returns": {
          "upkeepNeeded": "as true if performUpkeep() needs to be called, false otherwise. performData returned empty. "
        }
      },
      "owner()": {
        "details": "Returns the address of the current owner."
      },
      "performUpkeep(bytes)": {
        "params": {
          "performData": "Not used in this implementation."
        }
      },
      "readLastBlockNumberForPodIndex(uint256)": {
        "params": {
          "podIndex": "The position of the pod in the Registry"
        }
      },
      "renounceOwnership()": {
        "details": "Leaves the contract without owner. It will not be possible to call `onlyOwner` functions anymore. Can only be called by the current owner. NOTE: Renouncing ownership will leave the contract without an owner, thereby removing any functionality that is only available to the owner."
      },
      "transferOwnership(address)": {
        "details": "Transfers ownership of the contract to a new account (`newOwner`). Can only be called by the current owner."
      },
      "updateBlockUpkeepInterval(uint256)": {
        "params": {
          "_upkeepBlockInterval": "The new upkeepBlockInterval (in blocks)"
        }
      },
      "updatePodsRegistry(address)": {
        "params": {
          "_addressRegistry": "The new podsRegistry"
        }
      },
      "updateUpkeepBatchLimit(uint256)": {
        "params": {
          "_upkeepBatchLimit": "The new _upkeepBatchLimit"
        }
      }
    },
    "stateVariables": {
      "PODS_PACKED_ARRAY_SIZE": {
        "details": "Fixed length of the last upkeep block number (multiple this by 8 to get the maximum number of pods for storage)"
      }
    },
    "version": 1
  },
  "userdoc": {
    "events": {
      "ErrorCallingDrop(string)": {
        "notice": "Emitted when the drop() call reverts"
      },
      "PodsRegistryUpdated(address)": {
        "notice": "Emitted when the address registry is updated"
      },
      "UpkeepBatchLimitUpdated(uint256)": {
        "notice": "Emitted when the upkeep max batch is updated"
      },
      "UpkeepBlockIntervalUpdated(uint256)": {
        "notice": "Emitted when the upkeep block interval is updated"
      }
    },
    "kind": "user",
    "methods": {
      "checkUpkeep(bytes)": {
        "notice": "Checks if Pods require upkeep. Call in a static manner every block by the Chainlink Upkeep network."
      },
      "constructor": {
        "notice": "Contract Constructor. No initializer. "
      },
      "performUpkeep(bytes)": {
        "notice": "Performs upkeep on the pods contract and updates lastUpkeepBlockNumbers"
      },
      "podsRegistry()": {
        "notice": "Address of the registry of pods contract which require upkeep"
      },
      "readLastBlockNumberForPodIndex(uint256)": {
        "notice": "Get the last Upkeep block number for a pod"
      },
      "updateBlockUpkeepInterval(uint256)": {
        "notice": "Updates the upkeepBlockInterval. Can only be called by the contract owner"
      },
      "updatePodsRegistry(address)": {
        "notice": "Updates the address registry. Can only be called by the contract owner"
      },
      "updateUpkeepBatchLimit(uint256)": {
        "notice": "Updates the upkeep max batch. Can only be called by the contract owner"
      },
      "upkeepBatchLimit()": {
        "notice": "Maximum number of pods that performUpkeep can be called on"
      },
      "upkeepBlockInterval()": {
        "notice": "Global upkeep interval expressed in blocks at which pods.batch() will be called"
      }
    },
    "notice": "Contract implements Chainlink's Upkeep system interface, automating the upkeep of a registry of Pod contracts",
    "version": 1
  },
  "storageLayout": {
    "storage": [
      {
        "astId": 362,
        "contract": "contracts/PodsUpkeep.sol:PodsUpkeep",
        "label": "_owner",
        "offset": 0,
        "slot": "0",
        "type": "t_address"
      },
      {
        "astId": 1079,
        "contract": "contracts/PodsUpkeep.sol:PodsUpkeep",
        "label": "podsRegistry",
        "offset": 0,
        "slot": "1",
        "type": "t_contract(AddressRegistry)677"
      },
      {
        "astId": 1087,
        "contract": "contracts/PodsUpkeep.sol:PodsUpkeep",
        "label": "lastUpkeepBlockNumber",
        "offset": 0,
        "slot": "2",
        "type": "t_array(t_uint256)10_storage"
      },
      {
        "astId": 1090,
        "contract": "contracts/PodsUpkeep.sol:PodsUpkeep",
        "label": "upkeepBlockInterval",
        "offset": 0,
        "slot": "12",
        "type": "t_uint256"
      },
      {
        "astId": 1113,
        "contract": "contracts/PodsUpkeep.sol:PodsUpkeep",
        "label": "upkeepBatchLimit",
        "offset": 0,
        "slot": "13",
        "type": "t_uint256"
      }
    ],
    "types": {
      "t_address": {
        "encoding": "inplace",
        "label": "address",
        "numberOfBytes": "20"
      },
      "t_array(t_uint256)10_storage": {
        "base": "t_uint256",
        "encoding": "inplace",
        "label": "uint256[10]",
        "numberOfBytes": "320"
      },
      "t_contract(AddressRegistry)677": {
        "encoding": "inplace",
        "label": "contract AddressRegistry",
        "numberOfBytes": "20"
      },
      "t_uint256": {
        "encoding": "inplace",
        "label": "uint256",
        "numberOfBytes": "32"
      }
    }
  }
}