{
  "address": "0x6c87C9960fac84F31AEc88964cA1270C70Ca6853",
  "abi": [
    {
      "inputs": [
        {
          "internalType": "contract AddressRegistry",
          "name": "_podsRegistry",
          "type": "address"
        },
        {
          "internalType": "address",
          "name": "_owner",
          "type": "address"
        },
        {
          "internalType": "uint256",
          "name": "_upkeepBlockInterval",
          "type": "uint256"
        },
        {
          "internalType": "uint256",
          "name": "_upkeepBatchLimit",
          "type": "uint256"
        }
      ],
      "stateMutability": "nonpayable",
      "type": "constructor"
    },
    {
      "anonymous": false,
      "inputs": [
        {
          "indexed": true,
          "internalType": "address",
          "name": "previousOwner",
          "type": "address"
        },
        {
          "indexed": true,
          "internalType": "address",
          "name": "newOwner",
          "type": "address"
        }
      ],
      "name": "OwnershipTransferred",
      "type": "event"
    },
    {
      "anonymous": false,
      "inputs": [
        {
          "indexed": false,
          "internalType": "address",
          "name": "account",
          "type": "address"
        }
      ],
      "name": "Paused",
      "type": "event"
    },
    {
      "anonymous": false,
      "inputs": [
        {
          "indexed": false,
          "internalType": "contract AddressRegistry",
          "name": "addressRegistry",
          "type": "address"
        }
      ],
      "name": "PodsRegistryUpdated",
      "type": "event"
    },
    {
      "anonymous": false,
      "inputs": [
        {
          "indexed": false,
          "internalType": "address",
          "name": "account",
          "type": "address"
        }
      ],
      "name": "Unpaused",
      "type": "event"
    },
    {
      "anonymous": false,
      "inputs": [
        {
          "indexed": false,
          "internalType": "uint256",
          "name": "upkeepBatchLimit",
          "type": "uint256"
        }
      ],
      "name": "UpkeepBatchLimitUpdated",
      "type": "event"
    },
    {
      "anonymous": false,
      "inputs": [
        {
          "indexed": false,
          "internalType": "uint256",
          "name": "upkeepBlockInterval",
          "type": "uint256"
        }
      ],
      "name": "UpkeepBlockIntervalUpdated",
      "type": "event"
    },
    {
      "inputs": [
        {
          "internalType": "bytes",
          "name": "checkData",
          "type": "bytes"
        }
      ],
      "name": "checkUpkeep",
      "outputs": [
        {
          "internalType": "bool",
          "name": "upkeepNeeded",
          "type": "bool"
        },
        {
          "internalType": "bytes",
          "name": "performData",
          "type": "bytes"
        }
      ],
      "stateMutability": "view",
      "type": "function"
    },
    {
      "inputs": [],
      "name": "owner",
      "outputs": [
        {
          "internalType": "address",
          "name": "",
          "type": "address"
        }
      ],
      "stateMutability": "view",
      "type": "function"
    },
    {
      "inputs": [],
      "name": "pause",
      "outputs": [],
      "stateMutability": "nonpayable",
      "type": "function"
    },
    {
      "inputs": [],
      "name": "paused",
      "outputs": [
        {
          "internalType": "bool",
          "name": "",
          "type": "bool"
        }
      ],
      "stateMutability": "view",
      "type": "function"
    },
    {
      "inputs": [
        {
          "internalType": "bytes",
          "name": "performData",
          "type": "bytes"
        }
      ],
      "name": "performUpkeep",
      "outputs": [],
      "stateMutability": "nonpayable",
      "type": "function"
    },
    {
      "inputs": [],
      "name": "podsRegistry",
      "outputs": [
        {
          "internalType": "contract AddressRegistry",
          "name": "",
          "type": "address"
        }
      ],
      "stateMutability": "view",
      "type": "function"
    },
    {
      "inputs": [
        {
          "internalType": "uint256",
          "name": "podIndex",
          "type": "uint256"
        }
      ],
      "name": "readLastBlockNumberForPodIndex",
      "outputs": [
        {
          "internalType": "uint32",
          "name": "",
          "type": "uint32"
        }
      ],
      "stateMutability": "view",
      "type": "function"
    },
    {
      "inputs": [],
      "name": "renounceOwnership",
      "outputs": [],
      "stateMutability": "nonpayable",
      "type": "function"
    },
    {
      "inputs": [
        {
          "internalType": "address",
          "name": "newOwner",
          "type": "address"
        }
      ],
      "name": "transferOwnership",
      "outputs": [],
      "stateMutability": "nonpayable",
      "type": "function"
    },
    {
      "inputs": [],
      "name": "unpause",
      "outputs": [],
      "stateMutability": "nonpayable",
      "type": "function"
    },
    {
      "inputs": [
        {
          "internalType": "uint256",
          "name": "_upkeepBlockInterval",
          "type": "uint256"
        }
      ],
      "name": "updateBlockUpkeepInterval",
      "outputs": [],
      "stateMutability": "nonpayable",
      "type": "function"
    },
    {
      "inputs": [
        {
          "internalType": "contract AddressRegistry",
          "name": "_addressRegistry",
          "type": "address"
        }
      ],
      "name": "updatePodsRegistry",
      "outputs": [],
      "stateMutability": "nonpayable",
      "type": "function"
    },
    {
      "inputs": [
        {
          "internalType": "uint256",
          "name": "_upkeepBatchLimit",
          "type": "uint256"
        }
      ],
      "name": "updateUpkeepBatchLimit",
      "outputs": [],
      "stateMutability": "nonpayable",
      "type": "function"
    },
    {
      "inputs": [],
      "name": "upkeepBatchLimit",
      "outputs": [
        {
          "internalType": "uint256",
          "name": "",
          "type": "uint256"
        }
      ],
      "stateMutability": "view",
      "type": "function"
    },
    {
      "inputs": [],
      "name": "upkeepBlockInterval",
      "outputs": [
        {
          "internalType": "uint256",
          "name": "",
          "type": "uint256"
        }
      ],
      "stateMutability": "view",
      "type": "function"
    }
  ],
  "transactionHash": "0x2c01258eb9361e1e36c6b8ddba530ed49dd3a44217bbc965bfa7fa44d382f151",
  "args": [
    "0x4658f736b93dCDdCbCe46cDe955970E697fd351f",
    "0x029Aa20Dcc15c022b1b61D420aaCf7f179A9C73f",
    6171,
    3
  ],
  "solcInputHash": "68e784132ece9b32abb44712fb4b2ec2",
  "bytecode": "0x608060405234801561001057600080fd5b506040516200119c3803806200119c8339818101604052608081101561003557600080fd5b5080516020820151604083015160609093015191929091600061005661016f565b600080546001600160a01b0319166001600160a01b0383169081178255604051929350916000805160206200117c833981519152908290a3506000805460ff60a01b19169055600180546001600160a01b0386166001600160a01b0319909116811790915560408051918252517f18bd423236e58da961144fbace94c4bc95a7adc67dd2d7d85187a6fb194af92d9181900360200190a16100f683610173565b600c8290556040805183815290517f90a69c64360b7faa15b24f7c6bf7886de2ae300b4405895b8c4a4beabe67f7879181900360200190a1600d8190556040805182815290517f65a9cb1bf62947e219360bb6e0c9bdf929470e2d9c3dbd10600089b13ef7c0c89181900360200190a150505050610286565b3390565b61017b61016f565b6001600160a01b031661018c610277565b6001600160a01b0316146101e7576040805162461bcd60e51b815260206004820181905260248201527f4f776e61626c653a2063616c6c6572206973206e6f7420746865206f776e6572604482015290519081900360640190fd5b6001600160a01b03811661022d5760405162461bcd60e51b8152600401808060200182810382526026815260200180620011566026913960400191505060405180910390fd5b600080546040516001600160a01b03808516939216916000805160206200117c83398151915291a3600080546001600160a01b0319166001600160a01b0392909216919091179055565b6000546001600160a01b031690565b610ec080620002966000396000f3fe608060405234801561001057600080fd5b50600436106100f55760003560e01c80636e04ff0d1161009757806385f5695c1161006657806385f5695c146103445780638da5cb5b1461034c578063cc11232914610354578063f2fde38b14610371576100f5565b80636e04ff0d1461021f578063715018a61461030e57806378fa10ac146103165780638456cb591461033c576100f5565b80634585e33b116100d35780634585e33b1461013b57806358c81ec4146101a95780635c975abb146101cd578063691b166e146101e9576100f5565b8063241a9a65146100fa5780633f4ba83a146101145780634043511c1461011e575b600080fd5b610102610397565b60408051918252519081900360200190f35b61011c61039d565b005b61011c6004803603602081101561013457600080fd5b5035610409565b61011c6004803603602081101561015157600080fd5b810190602081018135600160201b81111561016b57600080fd5b82018360208201111561017d57600080fd5b803590602001918460018302840111600160201b8311171561019e57600080fd5b5090925090506104a6565b6101b1610738565b604080516001600160a01b039092168252519081900360200190f35b6101d5610747565b604080519115158252519081900360200190f35b610206600480360360208110156101ff57600080fd5b5035610757565b6040805163ffffffff9092168252519081900360200190f35b61028d6004803603602081101561023557600080fd5b810190602081018135600160201b81111561024f57600080fd5b82018360208201111561026157600080fd5b803590602001918460018302840111600160201b8311171561028257600080fd5b50909250905061077f565b60405180831515815260200180602001828103825283818151815260200191508051906020019080838360005b838110156102d25781810151838201526020016102ba565b50505050905090810190601f1680156102ff5780820380516001836020036101000a031916815260200191505b50935050505060405180910390f35b61011c610958565b61011c6004803603602081101561032c57600080fd5b50356001600160a01b0316610a04565b61011c610aba565b610102610b24565b6101b1610b2a565b61011c6004803603602081101561036a57600080fd5b5035610b39565b61011c6004803603602081101561038757600080fd5b50356001600160a01b0316610bd6565b600d5481565b6103a5610cd8565b6001600160a01b03166103b6610b2a565b6001600160a01b0316146103ff576040805162461bcd60e51b81526020600482018190526024820152600080516020610e6b833981519152604482015290519081900360640190fd5b610407610cdc565b565b610411610cd8565b6001600160a01b0316610422610b2a565b6001600160a01b03161461046b576040805162461bcd60e51b81526020600482018190526024820152600080516020610e6b833981519152604482015290519081900360640190fd5b600c8190556040805182815290517f90a69c64360b7faa15b24f7c6bf7886de2ae300b4405895b8c4a4beabe67f7879181900360200190a150565b6104ae610747565b156104f3576040805162461bcd60e51b815260206004820152601060248201526f14185d5cd8589b194e881c185d5cd95960821b604482015290519081900360640190fd5b600154604080516351cfd60960e11b815290516000926001600160a01b03169163a39fac129160048083019286929190829003018186803b15801561053757600080fd5b505afa15801561054b573d6000803e3d6000fd5b505050506040513d6000823e601f3d908101601f19168201604052602081101561057457600080fd5b8101908080516040519392919084600160201b82111561059357600080fd5b9083019060208201858111156105a857600080fd5b82518660208202830111600160201b821117156105c457600080fd5b82525081516020918201928201910280838360005b838110156105f15781810151838201526020016105d9565b5050505090500160405250505090506000815190506000600d5490506000805b600884048160ff161161072f57600060028260ff16600a811061063057fe5b0154905060005b8583600802820160ff1610156107125784841061065357610712565b600061065f8383610d7f565b9050600c548163ffffffff1601431115610709578784600802830160ff168151811061068757fe5b60200260200101516001600160a01b031663f751cd8f6040518163ffffffff1660e01b8152600401602060405180830381600087803b1580156106c957600080fd5b505af11580156106dd573d6000803e3d6000fd5b505050506040513d60208110156106f357600080fd5b5050600190940193610706838343610d98565b92505b50600101610637565b508060028360ff16600a811061072457fe5b015550600101610611565b50505050505050565b6001546001600160a01b031681565b600054600160a01b900460ff1690565b600060088204610778600282600a811061076d57fe5b015460088506610d7f565b9392505050565b6000606061078b610747565b156107995760009150610951565b600154604080516351cfd60960e11b815290516000926001600160a01b03169163a39fac129160048083019286929190829003018186803b1580156107dd57600080fd5b505afa1580156107f1573d6000803e3d6000fd5b505050506040513d6000823e601f3d908101601f19168201604052602081101561081a57600080fd5b8101908080516040519392919084600160201b82111561083957600080fd5b90830190602082018581111561084e57600080fd5b82518660208202830111600160201b8211171561086a57600080fd5b82525081516020918201928201910280838360005b8381101561089757818101518382015260200161087f565b5050505090500160405250505090506000600c54905060008251905060005b600882048111610936576000600282600a81106108cf57fe5b0154905060005b83836008028201101561092c5760006108ef8383610d7f565b9050858163ffffffff1601431115610923576001604051806020016040528060008152509850985050505050505050610951565b506001016108d6565b50506001016108b6565b50600060405180602001604052806000815250945094505050505b9250929050565b610960610cd8565b6001600160a01b0316610971610b2a565b6001600160a01b0316146109ba576040805162461bcd60e51b81526020600482018190526024820152600080516020610e6b833981519152604482015290519081900360640190fd5b600080546040516001600160a01b03909116907f8be0079c531659141344cd1fd0a4f28419497f9722a3daafe3b4186f6b6457e0908390a3600080546001600160a01b0319169055565b610a0c610cd8565b6001600160a01b0316610a1d610b2a565b6001600160a01b031614610a66576040805162461bcd60e51b81526020600482018190526024820152600080516020610e6b833981519152604482015290519081900360640190fd5b600180546001600160a01b0383166001600160a01b0319909116811790915560408051918252517f18bd423236e58da961144fbace94c4bc95a7adc67dd2d7d85187a6fb194af92d9181900360200190a150565b610ac2610cd8565b6001600160a01b0316610ad3610b2a565b6001600160a01b031614610b1c576040805162461bcd60e51b81526020600482018190526024820152600080516020610e6b833981519152604482015290519081900360640190fd5b610407610dbb565b600c5481565b6000546001600160a01b031690565b610b41610cd8565b6001600160a01b0316610b52610b2a565b6001600160a01b031614610b9b576040805162461bcd60e51b81526020600482018190526024820152600080516020610e6b833981519152604482015290519081900360640190fd5b600d8190556040805182815290517f65a9cb1bf62947e219360bb6e0c9bdf929470e2d9c3dbd10600089b13ef7c0c89181900360200190a150565b610bde610cd8565b6001600160a01b0316610bef610b2a565b6001600160a01b031614610c38576040805162461bcd60e51b81526020600482018190526024820152600080516020610e6b833981519152604482015290519081900360640190fd5b6001600160a01b038116610c7d5760405162461bcd60e51b8152600401808060200182810382526026815260200180610e456026913960400191505060405180910390fd5b600080546040516001600160a01b03808516939216917f8be0079c531659141344cd1fd0a4f28419497f9722a3daafe3b4186f6b6457e091a3600080546001600160a01b0319166001600160a01b0392909216919091179055565b3390565b610ce4610747565b610d2c576040805162461bcd60e51b815260206004820152601460248201527314185d5cd8589b194e881b9bdd081c185d5cd95960621b604482015290519081900360640190fd5b6000805460ff60a01b191690557f5db9ee0a495bf2e6ff9c91a7834c1ba4fdd244a5e8aa4e537bd38aeae4b073aa610d62610cd8565b604080516001600160a01b039092168252519081900360200190a1565b63ffffffff60ff602083021690811b8316901c92915050565b63ffffffff60ff6020939093029290921682811b801992909316901b1791171690565b610dc3610747565b15610e08576040805162461bcd60e51b815260206004820152601060248201526f14185d5cd8589b194e881c185d5cd95960821b604482015290519081900360640190fd5b6000805460ff60a01b1916600160a01b1790557f62e78cea01bee320cd4e420270b5ea74000d11b0c9f74754ebdbfc544b05a258610d62610cd856fe4f776e61626c653a206e6577206f776e657220697320746865207a65726f20616464726573734f776e61626c653a2063616c6c6572206973206e6f7420746865206f776e6572a2646970667358221220e7d0db85d1803ccacdc947b36ffdc893499ad818ea0512bbbf610f855821ce7764736f6c634300070600334f776e61626c653a206e6577206f776e657220697320746865207a65726f20616464726573738be0079c531659141344cd1fd0a4f28419497f9722a3daafe3b4186f6b6457e0",
  "devdoc": {
    "kind": "dev",
    "methods": {
      "checkUpkeep(bytes)": {
        "params": {
          "checkData": "Not used in this implementation."
        },
        "returns": {
          "upkeepNeeded": "as true if performUpkeep() needs to be called, false otherwise. performData returned empty. "
        }
      },
      "owner()": {
        "details": "Returns the address of the current owner."
      },
      "paused()": {
        "details": "Returns true if the contract is paused, and false otherwise."
      },
      "performUpkeep(bytes)": {
        "params": {
          "performData": "Not used in this implementation."
        }
      },
      "readLastBlockNumberForPodIndex(uint256)": {
        "params": {
          "podIndex": "The position of the pod in the Registry"
        }
      },
      "renounceOwnership()": {
        "details": "Leaves the contract without owner. It will not be possible to call `onlyOwner` functions anymore. Can only be called by the current owner. NOTE: Renouncing ownership will leave the contract without an owner, thereby removing any functionality that is only available to the owner."
      },
      "transferOwnership(address)": {
        "details": "Transfers ownership of the contract to a new account (`newOwner`). Can only be called by the current owner."
      },
      "updateBlockUpkeepInterval(uint256)": {
        "params": {
          "_upkeepBlockInterval": "The new upkeepBlockInterval (in blocks)"
        }
      },
      "updatePodsRegistry(address)": {
        "params": {
          "_addressRegistry": "The new podsRegistry"
        }
      },
      "updateUpkeepBatchLimit(uint256)": {
        "params": {
          "_upkeepBatchLimit": "The new _upkeepBatchLimit"
        }
      }
    },
    "stateVariables": {
      "PODS_PACKED_ARRAY_SIZE": {
        "details": "Fixed length of the last upkeep block number (multiple this by 8 to get the maximum number of pods for storage)"
      }
    },
    "version": 1
  },
  "userdoc": {
    "events": {
      "PodsRegistryUpdated(address)": {
        "notice": "Emitted when the address registry is updated"
      },
      "UpkeepBatchLimitUpdated(uint256)": {
        "notice": "Emitted when the upkeep max batch is updated"
      },
      "UpkeepBlockIntervalUpdated(uint256)": {
        "notice": "Emitted when the upkeep block interval is updated"
      }
    },
    "kind": "user",
    "methods": {
      "checkUpkeep(bytes)": {
        "notice": "Checks if Pods require upkeep. Call in a static manner every block by the Chainlink Upkeep network."
      },
      "constructor": {
        "notice": "Contract Constructor. No initializer. "
      },
      "pause()": {
        "notice": "Pauses the contract. Only callable by owner."
      },
      "performUpkeep(bytes)": {
        "notice": "Performs upkeep on the pods contract and updates lastUpkeepBlockNumbers"
      },
      "podsRegistry()": {
        "notice": "Address of the registry of pods contract which require upkeep"
      },
      "readLastBlockNumberForPodIndex(uint256)": {
        "notice": "Get the last Upkeep block number for a pod"
      },
      "unpause()": {
        "notice": "Unpauses the contract. Only callable by owner."
      },
      "updateBlockUpkeepInterval(uint256)": {
        "notice": "Updates the upkeepBlockInterval. Can only be called by the contract owner"
      },
      "updatePodsRegistry(address)": {
        "notice": "Updates the address registry. Can only be called by the contract owner"
      },
      "updateUpkeepBatchLimit(uint256)": {
        "notice": "Updates the upkeep max batch. Can only be called by the contract owner"
      },
      "upkeepBatchLimit()": {
        "notice": "Maximum number of pods that performUpkeep can be called on"
      },
      "upkeepBlockInterval()": {
        "notice": "Global upkeep interval expressed in blocks at which pods.batch() will be called"
      }
    },
    "notice": "Contract implements Chainlink's Upkeep system interface, automating the upkeep of a registry of Pod contracts",
    "version": 1
  },
  "storageLayout": {
    "storage": [
      {
        "astId": 362,
        "contract": "contracts/PodsUpkeep.sol:PodsUpkeep",
        "label": "_owner",
        "offset": 0,
        "slot": "0",
        "type": "t_address"
      },
      {
        "astId": 505,
        "contract": "contracts/PodsUpkeep.sol:PodsUpkeep",
        "label": "_paused",
        "offset": 20,
        "slot": "0",
        "type": "t_bool"
      },
      {
        "astId": 1174,
        "contract": "contracts/PodsUpkeep.sol:PodsUpkeep",
        "label": "podsRegistry",
        "offset": 0,
        "slot": "1",
        "type": "t_contract(AddressRegistry)769"
      },
      {
        "astId": 1182,
        "contract": "contracts/PodsUpkeep.sol:PodsUpkeep",
        "label": "lastUpkeepBlockNumber",
        "offset": 0,
        "slot": "2",
        "type": "t_array(t_uint256)10_storage"
      },
      {
        "astId": 1185,
        "contract": "contracts/PodsUpkeep.sol:PodsUpkeep",
        "label": "upkeepBlockInterval",
        "offset": 0,
        "slot": "12",
        "type": "t_uint256"
      },
      {
        "astId": 1203,
        "contract": "contracts/PodsUpkeep.sol:PodsUpkeep",
        "label": "upkeepBatchLimit",
        "offset": 0,
        "slot": "13",
        "type": "t_uint256"
      }
    ],
    "types": {
      "t_address": {
        "encoding": "inplace",
        "label": "address",
        "numberOfBytes": "20"
      },
      "t_array(t_uint256)10_storage": {
        "base": "t_uint256",
        "encoding": "inplace",
        "label": "uint256[10]",
        "numberOfBytes": "320"
      },
      "t_bool": {
        "encoding": "inplace",
        "label": "bool",
        "numberOfBytes": "1"
      },
      "t_contract(AddressRegistry)769": {
        "encoding": "inplace",
        "label": "contract AddressRegistry",
        "numberOfBytes": "20"
      },
      "t_uint256": {
        "encoding": "inplace",
        "label": "uint256",
        "numberOfBytes": "32"
      }
    }
  }
}